{
  "contractName": "TokenExp",
  "abi": [
    {
      "constant": false,
      "inputs": [
        {
          "name": "spender",
          "type": "address"
        },
        {
          "name": "value",
          "type": "uint256"
        }
      ],
      "name": "approve",
      "outputs": [
        {
          "name": "",
          "type": "bool"
        }
      ],
      "payable": false,
      "stateMutability": "nonpayable",
      "type": "function"
    },
    {
      "constant": true,
      "inputs": [],
      "name": "totalSupply",
      "outputs": [
        {
          "name": "",
          "type": "uint256"
        }
      ],
      "payable": false,
      "stateMutability": "view",
      "type": "function"
    },
    {
      "constant": false,
      "inputs": [
        {
          "name": "from",
          "type": "address"
        },
        {
          "name": "to",
          "type": "address"
        },
        {
          "name": "value",
          "type": "uint256"
        }
      ],
      "name": "transferFrom",
      "outputs": [
        {
          "name": "",
          "type": "bool"
        }
      ],
      "payable": false,
      "stateMutability": "nonpayable",
      "type": "function"
    },
    {
      "constant": true,
      "inputs": [
        {
          "name": "",
          "type": "address"
        }
      ],
      "name": "balances",
      "outputs": [
        {
          "name": "",
          "type": "uint256"
        }
      ],
      "payable": false,
      "stateMutability": "view",
      "type": "function"
    },
    {
      "constant": true,
      "inputs": [],
      "name": "totalSupply_",
      "outputs": [
        {
          "name": "",
          "type": "uint256"
        }
      ],
      "payable": false,
      "stateMutability": "view",
      "type": "function"
    },
    {
      "constant": false,
      "inputs": [
        {
          "name": "spender",
          "type": "address"
        },
        {
          "name": "addedValue",
          "type": "uint256"
        }
      ],
      "name": "increaseAllowance",
      "outputs": [
        {
          "name": "",
          "type": "bool"
        }
      ],
      "payable": false,
      "stateMutability": "nonpayable",
      "type": "function"
    },
    {
      "constant": true,
      "inputs": [],
      "name": "multiple",
      "outputs": [
        {
          "name": "",
          "type": "uint256"
        }
      ],
      "payable": false,
      "stateMutability": "view",
      "type": "function"
    },
    {
      "constant": true,
      "inputs": [
        {
          "name": "owner",
          "type": "address"
        }
      ],
      "name": "balanceOf",
      "outputs": [
        {
          "name": "",
          "type": "uint256"
        }
      ],
      "payable": false,
      "stateMutability": "view",
      "type": "function"
    },
    {
      "constant": false,
      "inputs": [],
      "name": "renounceOwnership",
      "outputs": [],
      "payable": false,
      "stateMutability": "nonpayable",
      "type": "function"
    },
    {
      "constant": true,
      "inputs": [],
      "name": "owner",
      "outputs": [
        {
          "name": "",
          "type": "address"
        }
      ],
      "payable": false,
      "stateMutability": "view",
      "type": "function"
    },
    {
      "constant": true,
      "inputs": [],
      "name": "poolBalance",
      "outputs": [
        {
          "name": "",
          "type": "uint256"
        }
      ],
      "payable": false,
      "stateMutability": "view",
      "type": "function"
    },
    {
      "constant": false,
      "inputs": [
        {
          "name": "spender",
          "type": "address"
        },
        {
          "name": "subtractedValue",
          "type": "uint256"
        }
      ],
      "name": "decreaseAllowance",
      "outputs": [
        {
          "name": "",
          "type": "bool"
        }
      ],
      "payable": false,
      "stateMutability": "nonpayable",
      "type": "function"
    },
    {
      "constant": false,
      "inputs": [
        {
          "name": "to",
          "type": "address"
        },
        {
          "name": "value",
          "type": "uint256"
        }
      ],
      "name": "transfer",
      "outputs": [
        {
          "name": "",
          "type": "bool"
        }
      ],
      "payable": false,
      "stateMutability": "nonpayable",
      "type": "function"
    },
    {
      "constant": true,
      "inputs": [],
      "name": "bondingCurveDecimals",
      "outputs": [
        {
          "name": "",
          "type": "uint8"
        }
      ],
      "payable": false,
      "stateMutability": "view",
      "type": "function"
    },
    {
      "constant": true,
      "inputs": [
        {
          "name": "owner",
          "type": "address"
        },
        {
          "name": "spender",
          "type": "address"
        }
      ],
      "name": "allowance",
      "outputs": [
        {
          "name": "",
          "type": "uint256"
        }
      ],
      "payable": false,
      "stateMutability": "view",
      "type": "function"
    },
    {
      "constant": false,
      "inputs": [
        {
          "name": "_newOwner",
          "type": "address"
        }
      ],
      "name": "transferOwnership",
      "outputs": [],
      "payable": false,
      "stateMutability": "nonpayable",
      "type": "function"
    },
    {
      "inputs": [
        {
          "name": "_bondingCurveDecimals",
          "type": "uint8"
        },
        {
          "name": "_sellRatioPerMille",
          "type": "uint256"
        }
      ],
      "payable": false,
      "stateMutability": "nonpayable",
      "type": "constructor"
    },
    {
      "anonymous": false,
      "inputs": [
        {
          "indexed": false,
          "name": "amountMinted",
          "type": "uint256"
        },
        {
          "indexed": false,
          "name": "totalCost",
          "type": "uint256"
        }
      ],
      "name": "LogMint",
      "type": "event"
    },
    {
      "anonymous": false,
      "inputs": [
        {
          "indexed": false,
          "name": "amountWithdrawn",
          "type": "uint256"
        },
        {
          "indexed": false,
          "name": "reward",
          "type": "uint256"
        }
      ],
      "name": "LogWithdraw",
      "type": "event"
    },
    {
      "anonymous": false,
      "inputs": [
        {
          "indexed": false,
          "name": "logString",
          "type": "string"
        },
        {
          "indexed": false,
          "name": "value",
          "type": "uint256"
        }
      ],
      "name": "LogBondingCurve",
      "type": "event"
    },
    {
      "anonymous": false,
      "inputs": [
        {
          "indexed": true,
          "name": "previousOwner",
          "type": "address"
        }
      ],
      "name": "OwnershipRenounced",
      "type": "event"
    },
    {
      "anonymous": false,
      "inputs": [
        {
          "indexed": true,
          "name": "previousOwner",
          "type": "address"
        },
        {
          "indexed": true,
          "name": "newOwner",
          "type": "address"
        }
      ],
      "name": "OwnershipTransferred",
      "type": "event"
    },
    {
      "anonymous": false,
      "inputs": [
        {
          "indexed": true,
          "name": "from",
          "type": "address"
        },
        {
          "indexed": true,
          "name": "to",
          "type": "address"
        },
        {
          "indexed": false,
          "name": "value",
          "type": "uint256"
        }
      ],
      "name": "Transfer",
      "type": "event"
    },
    {
      "anonymous": false,
      "inputs": [
        {
          "indexed": true,
          "name": "owner",
          "type": "address"
        },
        {
          "indexed": true,
          "name": "spender",
          "type": "address"
        },
        {
          "indexed": false,
          "name": "value",
          "type": "uint256"
        }
      ],
      "name": "Approval",
      "type": "event"
    },
    {
      "constant": true,
      "inputs": [
        {
          "name": "tokenAmount",
          "type": "uint256"
        }
      ],
      "name": "getBuyPrice",
      "outputs": [
        {
          "name": "",
          "type": "uint256"
        }
      ],
      "payable": false,
      "stateMutability": "view",
      "type": "function"
    },
    {
      "constant": true,
      "inputs": [
        {
          "name": "tokenAmount",
          "type": "uint256"
        }
      ],
      "name": "getSellReward",
      "outputs": [
        {
          "name": "",
          "type": "uint256"
        }
      ],
      "payable": false,
      "stateMutability": "view",
      "type": "function"
    },
    {
      "constant": true,
      "inputs": [
        {
          "name": "price",
          "type": "uint256"
        }
      ],
      "name": "estimateTokenAmountForPrice",
      "outputs": [
        {
          "name": "tokenAmount",
          "type": "uint256"
        }
      ],
      "payable": false,
      "stateMutability": "view",
      "type": "function"
    },
    {
      "constant": false,
      "inputs": [
        {
          "name": "_wei",
          "type": "uint256"
        }
      ],
      "name": "buyTokens",
      "outputs": [
        {
          "name": "",
          "type": "bool"
        }
      ],
      "payable": true,
      "stateMutability": "payable",
      "type": "function"
    },
    {
      "constant": false,
      "inputs": [
        {
          "name": "_amountToWithdraw",
          "type": "uint256"
        }
      ],
      "name": "sellTokens",
      "outputs": [
        {
          "name": "",
          "type": "bool"
        }
      ],
      "payable": false,
      "stateMutability": "nonpayable",
      "type": "function"
    }
  ],
  "bytecode": "0x6080604052600060045534801561001557600080fd5b50604051604080611e87833981018060405281019080805190602001909291908051906020019092919050505033600360006101000a81548173ffffffffffffffffffffffffffffffffffffffff021916908373ffffffffffffffffffffffffffffffffffffffff16021790555081600360146101000a81548160ff021916908360ff160217905550600360149054906101000a900460ff1660ff16600a0a600681905550806007819055505050611db5806100d26000396000f30060806040526004361061011d576000357c0100000000000000000000000000000000000000000000000000000000900463ffffffff16806308d4db1414610122578063095ea7b31461016357806318160ddd146101c857806323b872dd146101f357806327e235e314610278578063324536eb146102cf5780633610724e146102fa5780633950935114610332578063437a8ae6146103975780636c11bcd3146103c257806370a0823114610407578063715018a61461045e5780638da5cb5b1461047557806396365d44146104cc578063a457c2d7146104f7578063a9059cbb1461055c578063ad7a69c4146105c1578063d02bd53114610602578063dd62ed3e14610633578063f2fde38b146106aa578063fd07124e146106ed575b600080fd5b34801561012e57600080fd5b5061014d6004803603810190808035906020019092919050505061072e565b6040518082815260200191505060405180910390f35b34801561016f57600080fd5b506101ae600480360381019080803573ffffffffffffffffffffffffffffffffffffffff1690602001909291908035906020019092919050505061076b565b604051808215151515815260200191505060405180910390f35b3480156101d457600080fd5b506101dd610898565b6040518082815260200191505060405180910390f35b3480156101ff57600080fd5b5061025e600480360381019080803573ffffffffffffffffffffffffffffffffffffffff169060200190929190803573ffffffffffffffffffffffffffffffffffffffff169060200190929190803590602001909291905050506108a2565b604051808215151515815260200191505060405180910390f35b34801561028457600080fd5b506102b9600480360381019080803573ffffffffffffffffffffffffffffffffffffffff169060200190929190505050610c5d565b6040518082815260200191505060405180910390f35b3480156102db57600080fd5b506102e4610c75565b6040518082815260200191505060405180910390f35b61031860048036038101908080359060200190929190505050610c7b565b604051808215151515815260200191505060405180910390f35b34801561033e57600080fd5b5061037d600480360381019080803573ffffffffffffffffffffffffffffffffffffffff16906020019092919080359060200190929190505050610f17565b604051808215151515815260200191505060405180910390f35b3480156103a357600080fd5b506103ac61114e565b6040518082815260200191505060405180910390f35b3480156103ce57600080fd5b506103ed60048036038101908080359060200190929190505050611154565b604051808215151515815260200191505060405180910390f35b34801561041357600080fd5b50610448600480360381019080803573ffffffffffffffffffffffffffffffffffffffff16906020019092919050505061140f565b6040518082815260200191505060405180910390f35b34801561046a57600080fd5b50610473611457565b005b34801561048157600080fd5b5061048a61155c565b604051808273ffffffffffffffffffffffffffffffffffffffff1673ffffffffffffffffffffffffffffffffffffffff16815260200191505060405180910390f35b3480156104d857600080fd5b506104e1611582565b6040518082815260200191505060405180910390f35b34801561050357600080fd5b50610542600480360381019080803573ffffffffffffffffffffffffffffffffffffffff16906020019092919080359060200190929190505050611588565b604051808215151515815260200191505060405180910390f35b34801561056857600080fd5b506105a7600480360381019080803573ffffffffffffffffffffffffffffffffffffffff169060200190929190803590602001909291905050506117bf565b604051808215151515815260200191505060405180910390f35b3480156105cd57600080fd5b506105ec600480360381019080803590602001909291905050506119df565b6040518082815260200191505060405180910390f35b34801561060e57600080fd5b50610617611ab7565b604051808260ff1660ff16815260200191505060405180910390f35b34801561063f57600080fd5b50610694600480360381019080803573ffffffffffffffffffffffffffffffffffffffff169060200190929190803573ffffffffffffffffffffffffffffffffffffffff169060200190929190505050611aca565b6040518082815260200191505060405180910390f35b3480156106b657600080fd5b506106eb600480360381019080803573ffffffffffffffffffffffffffffffffffffffff169060200190929190505050611b51565b005b3480156106f957600080fd5b5061071860048036038101908080359060200190929190505050611bb9565b6040518082815260200191505060405180910390f35b600080600060055484019150600454600654600654600654600302020283848502026008540281151561075d57fe5b040390508092505050919050565b60008073ffffffffffffffffffffffffffffffffffffffff168373ffffffffffffffffffffffffffffffffffffffff16141515156107a857600080fd5b81600160003373ffffffffffffffffffffffffffffffffffffffff1673ffffffffffffffffffffffffffffffffffffffff16815260200190815260200160002060008573ffffffffffffffffffffffffffffffffffffffff1673ffffffffffffffffffffffffffffffffffffffff168152602001908152602001600020819055508273ffffffffffffffffffffffffffffffffffffffff163373ffffffffffffffffffffffffffffffffffffffff167f8c5be1e5ebec7d5bd14f71427d1e84f3dd0314c0f7b2291e5b200ac8c7c3b925846040518082815260200191505060405180910390a36001905092915050565b6000600254905090565b60008060008573ffffffffffffffffffffffffffffffffffffffff1673ffffffffffffffffffffffffffffffffffffffff1681526020019081526020016000205482111515156108f157600080fd5b600160008573ffffffffffffffffffffffffffffffffffffffff1673ffffffffffffffffffffffffffffffffffffffff16815260200190815260200160002060003373ffffffffffffffffffffffffffffffffffffffff1673ffffffffffffffffffffffffffffffffffffffff16815260200190815260200160002054821115151561097c57600080fd5b600073ffffffffffffffffffffffffffffffffffffffff168373ffffffffffffffffffffffffffffffffffffffff16141515156109b857600080fd5b610a09826000808773ffffffffffffffffffffffffffffffffffffffff1673ffffffffffffffffffffffffffffffffffffffff16815260200190815260200160002054611c4b90919063ffffffff16565b6000808673ffffffffffffffffffffffffffffffffffffffff1673ffffffffffffffffffffffffffffffffffffffff16815260200190815260200160002081905550610a9c826000808673ffffffffffffffffffffffffffffffffffffffff1673ffffffffffffffffffffffffffffffffffffffff16815260200190815260200160002054611c6c90919063ffffffff16565b6000808573ffffffffffffffffffffffffffffffffffffffff1673ffffffffffffffffffffffffffffffffffffffff16815260200190815260200160002081905550610b6d82600160008773ffffffffffffffffffffffffffffffffffffffff1673ffffffffffffffffffffffffffffffffffffffff16815260200190815260200160002060003373ffffffffffffffffffffffffffffffffffffffff1673ffffffffffffffffffffffffffffffffffffffff16815260200190815260200160002054611c4b90919063ffffffff16565b600160008673ffffffffffffffffffffffffffffffffffffffff1673ffffffffffffffffffffffffffffffffffffffff16815260200190815260200160002060003373ffffffffffffffffffffffffffffffffffffffff1673ffffffffffffffffffffffffffffffffffffffff168152602001908152602001600020819055508273ffffffffffffffffffffffffffffffffffffffff168473ffffffffffffffffffffffffffffffffffffffff167fddf252ad1be2c89b69c2b068fc378daa952ba7f163c4a11628f55a4df523b3ef846040518082815260200191505060405180910390a3600190509392505050565b60006020528060005260406000206000915090505481565b60055481565b6000806000806000610c8c86611bb9565b9350610c978461072e565b9250823410151515610d37576040517f08c379a00000000000000000000000000000000000000000000000000000000081526004018080602001828103825260328152602001807f496e73756666696369656e7420457468657220746f206275792064657369726581526020017f6420616d6f756e74206f6620746f6b656e73000000000000000000000000000081525060400191505060405180910390fd5b610d4a8334611c4b90919063ffffffff16565b9150610d5f8234611c4b90919063ffffffff16565b90506000821115610e02573373ffffffffffffffffffffffffffffffffffffffff166108fc839081150290604051600060405180830381858888f19350505050158015610db0573d6000803e3d6000fd5b503373ffffffffffffffffffffffffffffffffffffffff1660007fddf252ad1be2c89b69c2b068fc378daa952ba7f163c4a11628f55a4df523b3ef846040518082815260200191505060405180910390a35b610e1784600554611c6c90919063ffffffff16565b600581905550610e6e846000803373ffffffffffffffffffffffffffffffffffffffff1673ffffffffffffffffffffffffffffffffffffffff16815260200190815260200160002054611c6c90919063ffffffff16565b6000803373ffffffffffffffffffffffffffffffffffffffff1673ffffffffffffffffffffffffffffffffffffffff16815260200190815260200160002081905550610ec581600454611c6c90919063ffffffff16565b6004819055507fe7360c0fa1984a85874443100f5b25dd4f84192659660eb199f6c96e11defbcb8482604051808381526020018281526020019250505060405180910390a16001945050505050919050565b60008073ffffffffffffffffffffffffffffffffffffffff168373ffffffffffffffffffffffffffffffffffffffff1614151515610f5457600080fd5b610fe382600160003373ffffffffffffffffffffffffffffffffffffffff1673ffffffffffffffffffffffffffffffffffffffff16815260200190815260200160002060008673ffffffffffffffffffffffffffffffffffffffff1673ffffffffffffffffffffffffffffffffffffffff16815260200190815260200160002054611c6c90919063ffffffff16565b600160003373ffffffffffffffffffffffffffffffffffffffff1673ffffffffffffffffffffffffffffffffffffffff16815260200190815260200160002060008573ffffffffffffffffffffffffffffffffffffffff1673ffffffffffffffffffffffffffffffffffffffff168152602001908152602001600020819055508273ffffffffffffffffffffffffffffffffffffffff163373ffffffffffffffffffffffffffffffffffffffff167f8c5be1e5ebec7d5bd14f71427d1e84f3dd0314c0f7b2291e5b200ac8c7c3b925600160003373ffffffffffffffffffffffffffffffffffffffff1673ffffffffffffffffffffffffffffffffffffffff16815260200190815260200160002060008773ffffffffffffffffffffffffffffffffffffffff1673ffffffffffffffffffffffffffffffffffffffff168152602001908152602001600020546040518082815260200191505060405180910390a36001905092915050565b60085481565b6000806000831115156111cf576040517f08c379a00000000000000000000000000000000000000000000000000000000081526004018080602001828103825260148152602001807f43616e6e6f742073656c6c203020746f6b656e7300000000000000000000000081525060200191505060405180910390fd5b826000803373ffffffffffffffffffffffffffffffffffffffff1673ffffffffffffffffffffffffffffffffffffffff16815260200190815260200160002054101515156112ab576040517f08c379a00000000000000000000000000000000000000000000000000000000081526004018080602001828103825260398152602001807f496e73756666696369656e742062616c616e636520666f722073656c6c696e6781526020017f206465736972656420616d6f756e74206f6620746f6b656e730000000000000081525060400191505060405180910390fd5b6112b4836119df565b90503373ffffffffffffffffffffffffffffffffffffffff166108fc829081150290604051600060405180830381858888f193505050501580156112fc573d6000803e3d6000fd5b5061131281600454611c4b90919063ffffffff16565b600481905550611369836000803373ffffffffffffffffffffffffffffffffffffffff1673ffffffffffffffffffffffffffffffffffffffff16815260200190815260200160002054611c4b90919063ffffffff16565b6000803373ffffffffffffffffffffffffffffffffffffffff1673ffffffffffffffffffffffffffffffffffffffff168152602001908152602001600020819055506113c083600554611c4b90919063ffffffff16565b6005819055507f210405eb88ac7589aa9de0a6e36b9c9d3cd6e4061b74363d250a77afe3c6efb78382604051808381526020018281526020019250505060405180910390a16001915050919050565b60008060008373ffffffffffffffffffffffffffffffffffffffff1673ffffffffffffffffffffffffffffffffffffffff168152602001908152602001600020549050919050565b600360009054906101000a900473ffffffffffffffffffffffffffffffffffffffff1673ffffffffffffffffffffffffffffffffffffffff163373ffffffffffffffffffffffffffffffffffffffff161415156114b357600080fd5b600360009054906101000a900473ffffffffffffffffffffffffffffffffffffffff1673ffffffffffffffffffffffffffffffffffffffff167ff8df31144d9c2f0f6b59d69b8b98abd5459d07f2742c4df920b25aae33c6482060405160405180910390a26000600360006101000a81548173ffffffffffffffffffffffffffffffffffffffff021916908373ffffffffffffffffffffffffffffffffffffffff160217905550565b600360009054906101000a900473ffffffffffffffffffffffffffffffffffffffff1681565b60045481565b60008073ffffffffffffffffffffffffffffffffffffffff168373ffffffffffffffffffffffffffffffffffffffff16141515156115c557600080fd5b61165482600160003373ffffffffffffffffffffffffffffffffffffffff1673ffffffffffffffffffffffffffffffffffffffff16815260200190815260200160002060008673ffffffffffffffffffffffffffffffffffffffff1673ffffffffffffffffffffffffffffffffffffffff16815260200190815260200160002054611c4b90919063ffffffff16565b600160003373ffffffffffffffffffffffffffffffffffffffff1673ffffffffffffffffffffffffffffffffffffffff16815260200190815260200160002060008573ffffffffffffffffffffffffffffffffffffffff1673ffffffffffffffffffffffffffffffffffffffff168152602001908152602001600020819055508273ffffffffffffffffffffffffffffffffffffffff163373ffffffffffffffffffffffffffffffffffffffff167f8c5be1e5ebec7d5bd14f71427d1e84f3dd0314c0f7b2291e5b200ac8c7c3b925600160003373ffffffffffffffffffffffffffffffffffffffff1673ffffffffffffffffffffffffffffffffffffffff16815260200190815260200160002060008773ffffffffffffffffffffffffffffffffffffffff1673ffffffffffffffffffffffffffffffffffffffff168152602001908152602001600020546040518082815260200191505060405180910390a36001905092915050565b60008060003373ffffffffffffffffffffffffffffffffffffffff1673ffffffffffffffffffffffffffffffffffffffff16815260200190815260200160002054821115151561180e57600080fd5b600073ffffffffffffffffffffffffffffffffffffffff168373ffffffffffffffffffffffffffffffffffffffff161415151561184a57600080fd5b61189b826000803373ffffffffffffffffffffffffffffffffffffffff1673ffffffffffffffffffffffffffffffffffffffff16815260200190815260200160002054611c4b90919063ffffffff16565b6000803373ffffffffffffffffffffffffffffffffffffffff1673ffffffffffffffffffffffffffffffffffffffff1681526020019081526020016000208190555061192e826000808673ffffffffffffffffffffffffffffffffffffffff1673ffffffffffffffffffffffffffffffffffffffff16815260200190815260200160002054611c6c90919063ffffffff16565b6000808573ffffffffffffffffffffffffffffffffffffffff1673ffffffffffffffffffffffffffffffffffffffff168152602001908152602001600020819055508273ffffffffffffffffffffffffffffffffffffffff163373ffffffffffffffffffffffffffffffffffffffff167fddf252ad1be2c89b69c2b068fc378daa952ba7f163c4a11628f55a4df523b3ef846040518082815260200191505060405180910390a36001905092915050565b600080600080600085600554101515156119f857600080fd5b856005540393506006546006546006546003020202600185868760085402020202811515611a2257fe5b046004540392506103e88360075402811515611a3a57fe5b0491508183039050600360009054906101000a900473ffffffffffffffffffffffffffffffffffffffff1673ffffffffffffffffffffffffffffffffffffffff166108fc829081150290604051600060405180830381858888f19350505050158015611aaa573d6000803e3d6000fd5b5081945050505050919050565b600360149054906101000a900460ff1681565b6000600160008473ffffffffffffffffffffffffffffffffffffffff1673ffffffffffffffffffffffffffffffffffffffff16815260200190815260200160002060008373ffffffffffffffffffffffffffffffffffffffff1673ffffffffffffffffffffffffffffffffffffffff16815260200190815260200160002054905092915050565b600360009054906101000a900473ffffffffffffffffffffffffffffffffffffffff1673ffffffffffffffffffffffffffffffffffffffff163373ffffffffffffffffffffffffffffffffffffffff16141515611bad57600080fd5b611bb681611c8d565b50565b6000806000806000806064945060045487019350600191505b8460ff168260ff161015611c34576005546006548360ff160201905080600654828302811515611bfe57fe5b04029250600654600654600302028360085402811515611c1a57fe5b04841015611c2757611c34565b8180600101925050611bd2565b6006546001830360ff160295505050505050919050565b600080838311151515611c5d57600080fd5b82840390508091505092915050565b6000808284019050838110151515611c8357600080fd5b8091505092915050565b600073ffffffffffffffffffffffffffffffffffffffff168173ffffffffffffffffffffffffffffffffffffffff1614151515611cc957600080fd5b8073ffffffffffffffffffffffffffffffffffffffff16600360009054906101000a900473ffffffffffffffffffffffffffffffffffffffff1673ffffffffffffffffffffffffffffffffffffffff167f8be0079c531659141344cd1fd0a4f28419497f9722a3daafe3b4186f6b6457e060405160405180910390a380600360006101000a81548173ffffffffffffffffffffffffffffffffffffffff021916908373ffffffffffffffffffffffffffffffffffffffff160217905550505600a165627a7a72305820742484680ef4e540f7fc057e9d62ef804646753dfcf5a6a30994b6f9730b7ef30029",
  "source": "pragma solidity ^0.4.24;\n\nimport \"./erc20.sol\";\nimport \"openzeppelin-solidity/contracts/ownership/Ownable.sol\";\n\ncontract TokenExp is ERC20, Ownable {\n  event LogMint(uint256 amountMinted, uint256 totalCost);\n  event LogWithdraw(uint256 amountWithdrawn, uint256 reward);\n  event LogBondingCurve(string logString, uint256 value);\n\n  // must be divisible by 2 & at least 14 to accurately calculate cost\n  uint8 public bondingCurveDecimals;\n  uint256 public poolBalance = 0;\n  uint256 public totalSupply_;\n\n  // shorthand for decimal\n  // dec = (10 ** uint256(bondingCurveDecimals));\n  uint256 dec;\n\n  // Ratio of sell reward compared to buys\n  // Example: If set to 900, you sell your tokens at 90% of the buy value.\n  uint256 sellRatioPerMille;\n\n  // multiple is the cost of 1 * multiple tokens\n  // multiple will effect accuracy\n  // it should be around 10 ** 8 - 10 ** 12 to limit rounding errors\n  uint256 public multiple;\n\n  constructor(\n      uint8 _bondingCurveDecimals,\n      uint _sellRatioPerMille\n  )\n    public\n  {\n      bondingCurveDecimals = _bondingCurveDecimals;\n      dec = (10 ** uint256(bondingCurveDecimals));\n      sellRatioPerMille = _sellRatioPerMille;\n  }\n\n  // to compute poolBalance for any given price use integral y = m * 1/3 * x ^ 3\n  /**\n   * Get price for purchacing tokenAmount of tokens\n   * @param tokenAmount token amount param\n   * @return {uint} finalPrice\n   */\n  function getBuyPrice(uint256 tokenAmount) public view returns(uint) {\n    uint256 totalTokens = tokenAmount + totalSupply_;\n\n    // With: x = totalTokens / dec\n    uint256 finalPrice = multiple * (totalTokens * totalTokens * totalTokens) / ( 3 * dec * dec * dec) - poolBalance;\n\n    return finalPrice;\n  }\n\n\n  /**\n   * Get sell price for tokenAmount\n   * @param tokenAmount token amount param\n   * @return {uint} finalReward\n   */\n  function getSellReward(uint256 tokenAmount) public view returns(uint) {\n    require(totalSupply_ >= tokenAmount);\n\n    uint256 totalTokens = totalSupply_ - tokenAmount;\n    uint256 buyPrice = poolBalance - multiple * totalTokens * totalTokens * totalTokens * 1 / ( 3 * dec * dec * dec);\n    uint finalReward = sellRatioPerMille * buyPrice / 1000;\n\n    uint ownerPayout = buyPrice - finalReward;\n    owner.transfer(ownerPayout);\n\n    return finalReward;\n  }\n\n\n  /**\n   * @dev calculates the area under the curve based on amount\n   * this should not be needed - the ui should compute amount on the client\n   * @return tokenAmount\n   */\n   function estimateTokenAmountForPrice(uint256 price) public view returns(uint256 tokenAmount) {\n     // maximum amount for estimates\n     uint8 maxSale = 10 ** 2;\n     uint256 currentAmount = (price + poolBalance);\n     uint256 newPrice;\n\n     // TODO modify these intervals, as tokens get more expensive, we will want to use smaller intervals\n     for (uint8 i = 1; i < maxSale; i++) {\n       uint256 totalTokens = i * dec + totalSupply_;\n       // TODO check overflow\n       // same as totalTokens^3 * multiple^2\n       newPrice = (totalTokens * totalTokens / dec) * (totalTokens);\n       if (currentAmount < multiple * newPrice / (3 * dec * dec)) {\n         break;\n       }\n     }\n\n     return (i - 1) * dec;\n   }\n\n  /**\n   * @dev Buy tokens\n   * gas cost ~ $1.5\n   * @return {bool}\n   */\n  function buyTokens(uint256 _wei) public payable returns (bool) {\n    uint256 tokenAmount = estimateTokenAmountForPrice(_wei);\n    uint256 priceForAmount = getBuyPrice(tokenAmount);\n    require(msg.value >= priceForAmount, 'Insufficient Ether to buy desired amount of tokens');\n\n    uint256 remainingFunds = msg.value.sub(priceForAmount);\n    uint256 usedWei = msg.value.sub(remainingFunds);\n\n    // Send back unspent funds\n    if (remainingFunds > 0) {\n      msg.sender.transfer(remainingFunds);\n      emit Transfer(0x0, msg.sender, remainingFunds);\n    }\n\n    totalSupply_ = totalSupply_.add(tokenAmount);\n    balances[msg.sender] = balances[msg.sender].add(tokenAmount);\n    poolBalance = poolBalance.add(usedWei);\n\n    emit LogMint(tokenAmount, usedWei);\n    return true;\n  }\n\n  /**\n   * @dev sell tokesn\n   * @param _amountToWithdraw amount of tokens to withdraw\n   * @return {bool}\n   */\n  function sellTokens(uint256 _amountToWithdraw) public returns(bool) {\n    require(_amountToWithdraw > 0, 'Cannot sell 0 tokens');\n    require(balances[msg.sender] >= _amountToWithdraw, 'Insufficient balance for selling desired amount of tokens');\n\n    uint256 reward = getSellReward(_amountToWithdraw);\n    msg.sender.transfer(reward);\n\n    poolBalance = poolBalance.sub(reward);\n    balances[msg.sender] = balances[msg.sender].sub(_amountToWithdraw);\n    totalSupply_ = totalSupply_.sub(_amountToWithdraw);\n    emit LogWithdraw(_amountToWithdraw, reward);\n\n    return true;\n  }\n}\n",
  "sourcePath": "/home/mo/dev/ethberlin/smartcontracts/contracts/base/TokenExp.sol",
  "compiler": {
    "name": "solc",
    "version": "0.4.24+commit.e67f0147.Emscripten.clang"
  },
  "schemaVersion": "2.0.0",
  "updatedAt": "2018-09-08T15:44:22.136Z"
}