{
  "contractName": "TokenLin",
  "abi": [
    {
      "constant": false,
      "inputs": [
        {
          "name": "spender",
          "type": "address"
        },
        {
          "name": "value",
          "type": "uint256"
        }
      ],
      "name": "approve",
      "outputs": [
        {
          "name": "",
          "type": "bool"
        }
      ],
      "payable": false,
      "stateMutability": "nonpayable",
      "type": "function"
    },
    {
      "constant": true,
      "inputs": [],
      "name": "totalSupply",
      "outputs": [
        {
          "name": "",
          "type": "uint256"
        }
      ],
      "payable": false,
      "stateMutability": "view",
      "type": "function"
    },
    {
      "constant": false,
      "inputs": [
        {
          "name": "from",
          "type": "address"
        },
        {
          "name": "to",
          "type": "address"
        },
        {
          "name": "value",
          "type": "uint256"
        }
      ],
      "name": "transferFrom",
      "outputs": [
        {
          "name": "",
          "type": "bool"
        }
      ],
      "payable": false,
      "stateMutability": "nonpayable",
      "type": "function"
    },
    {
      "constant": true,
      "inputs": [
        {
          "name": "",
          "type": "address"
        }
      ],
      "name": "balances",
      "outputs": [
        {
          "name": "",
          "type": "uint256"
        }
      ],
      "payable": false,
      "stateMutability": "view",
      "type": "function"
    },
    {
      "constant": true,
      "inputs": [],
      "name": "totalSupply_",
      "outputs": [
        {
          "name": "",
          "type": "uint256"
        }
      ],
      "payable": false,
      "stateMutability": "view",
      "type": "function"
    },
    {
      "constant": false,
      "inputs": [
        {
          "name": "spender",
          "type": "address"
        },
        {
          "name": "addedValue",
          "type": "uint256"
        }
      ],
      "name": "increaseAllowance",
      "outputs": [
        {
          "name": "",
          "type": "bool"
        }
      ],
      "payable": false,
      "stateMutability": "nonpayable",
      "type": "function"
    },
    {
      "constant": true,
      "inputs": [],
      "name": "multiple",
      "outputs": [
        {
          "name": "",
          "type": "uint256"
        }
      ],
      "payable": false,
      "stateMutability": "view",
      "type": "function"
    },
    {
      "constant": true,
      "inputs": [
        {
          "name": "owner",
          "type": "address"
        }
      ],
      "name": "balanceOf",
      "outputs": [
        {
          "name": "",
          "type": "uint256"
        }
      ],
      "payable": false,
      "stateMutability": "view",
      "type": "function"
    },
    {
      "constant": true,
      "inputs": [],
      "name": "poolBalance",
      "outputs": [
        {
          "name": "",
          "type": "uint256"
        }
      ],
      "payable": false,
      "stateMutability": "view",
      "type": "function"
    },
    {
      "constant": false,
      "inputs": [
        {
          "name": "spender",
          "type": "address"
        },
        {
          "name": "subtractedValue",
          "type": "uint256"
        }
      ],
      "name": "decreaseAllowance",
      "outputs": [
        {
          "name": "",
          "type": "bool"
        }
      ],
      "payable": false,
      "stateMutability": "nonpayable",
      "type": "function"
    },
    {
      "constant": false,
      "inputs": [
        {
          "name": "to",
          "type": "address"
        },
        {
          "name": "value",
          "type": "uint256"
        }
      ],
      "name": "transfer",
      "outputs": [
        {
          "name": "",
          "type": "bool"
        }
      ],
      "payable": false,
      "stateMutability": "nonpayable",
      "type": "function"
    },
    {
      "constant": true,
      "inputs": [],
      "name": "bondingCurveDecimals",
      "outputs": [
        {
          "name": "",
          "type": "uint8"
        }
      ],
      "payable": false,
      "stateMutability": "view",
      "type": "function"
    },
    {
      "constant": true,
      "inputs": [
        {
          "name": "owner",
          "type": "address"
        },
        {
          "name": "spender",
          "type": "address"
        }
      ],
      "name": "allowance",
      "outputs": [
        {
          "name": "",
          "type": "uint256"
        }
      ],
      "payable": false,
      "stateMutability": "view",
      "type": "function"
    },
    {
      "payable": true,
      "stateMutability": "payable",
      "type": "fallback"
    },
    {
      "anonymous": false,
      "inputs": [
        {
          "indexed": false,
          "name": "amountMinted",
          "type": "uint256"
        },
        {
          "indexed": false,
          "name": "totalCost",
          "type": "uint256"
        }
      ],
      "name": "LogMint",
      "type": "event"
    },
    {
      "anonymous": false,
      "inputs": [
        {
          "indexed": false,
          "name": "amountWithdrawn",
          "type": "uint256"
        },
        {
          "indexed": false,
          "name": "reward",
          "type": "uint256"
        }
      ],
      "name": "LogWithdraw",
      "type": "event"
    },
    {
      "anonymous": false,
      "inputs": [
        {
          "indexed": false,
          "name": "logString",
          "type": "string"
        },
        {
          "indexed": false,
          "name": "value",
          "type": "uint256"
        }
      ],
      "name": "LogBondingCurve",
      "type": "event"
    },
    {
      "anonymous": false,
      "inputs": [
        {
          "indexed": true,
          "name": "from",
          "type": "address"
        },
        {
          "indexed": true,
          "name": "to",
          "type": "address"
        },
        {
          "indexed": false,
          "name": "value",
          "type": "uint256"
        }
      ],
      "name": "Transfer",
      "type": "event"
    },
    {
      "anonymous": false,
      "inputs": [
        {
          "indexed": true,
          "name": "owner",
          "type": "address"
        },
        {
          "indexed": true,
          "name": "spender",
          "type": "address"
        },
        {
          "indexed": false,
          "name": "value",
          "type": "uint256"
        }
      ],
      "name": "Approval",
      "type": "event"
    },
    {
      "constant": true,
      "inputs": [
        {
          "name": "tokenAmount",
          "type": "uint256"
        }
      ],
      "name": "getBuyPrice",
      "outputs": [
        {
          "name": "",
          "type": "uint256"
        }
      ],
      "payable": false,
      "stateMutability": "view",
      "type": "function"
    },
    {
      "constant": true,
      "inputs": [
        {
          "name": "tokenAmount",
          "type": "uint256"
        }
      ],
      "name": "getSellReward",
      "outputs": [
        {
          "name": "",
          "type": "uint256"
        }
      ],
      "payable": false,
      "stateMutability": "view",
      "type": "function"
    },
    {
      "constant": false,
      "inputs": [
        {
          "name": "tokensToMint",
          "type": "uint256"
        }
      ],
      "name": "buyTokens",
      "outputs": [
        {
          "name": "",
          "type": "bool"
        }
      ],
      "payable": true,
      "stateMutability": "payable",
      "type": "function"
    },
    {
      "constant": false,
      "inputs": [
        {
          "name": "_amountToWithdraw",
          "type": "uint256"
        }
      ],
      "name": "sellTokens",
      "outputs": [
        {
          "name": "",
          "type": "bool"
        }
      ],
      "payable": false,
      "stateMutability": "nonpayable",
      "type": "function"
    },
    {
      "constant": true,
      "inputs": [
        {
          "name": "price",
          "type": "uint256"
        }
      ],
      "name": "estimateTokenAmountForPrice",
      "outputs": [
        {
          "name": "tokenAmount",
          "type": "uint256"
        }
      ],
      "payable": false,
      "stateMutability": "view",
      "type": "function"
    },
    {
      "constant": true,
      "inputs": [
        {
          "name": "x",
          "type": "uint256"
        }
      ],
      "name": "sqrt",
      "outputs": [
        {
          "name": "y",
          "type": "uint256"
        }
      ],
      "payable": false,
      "stateMutability": "pure",
      "type": "function"
    }
  ],
  "bytecode": "0x6080604052600060045534801561001557600080fd5b5061186f806100256000396000f300608060405260043610610107576000357c0100000000000000000000000000000000000000000000000000000000900463ffffffff16806308d4db1414610121578063095ea7b31461016257806318160ddd146101c757806323b872dd146101f257806327e235e314610277578063324536eb146102ce5780633610724e146102f95780633950935114610331578063437a8ae614610396578063677342ce146103c15780636c11bcd31461040257806370a082311461044757806396365d441461049e578063a457c2d7146104c9578063a9059cbb1461052e578063ad7a69c414610593578063d02bd531146105d4578063dd62ed3e14610605578063fd07124e1461067c575b6000610112346106bd565b905061011d816106ec565b5050005b34801561012d57600080fd5b5061014c600480360381019080803590602001909291905050506108eb565b6040518082815260200191505060405180910390f35b34801561016e57600080fd5b506101ad600480360381019080803573ffffffffffffffffffffffffffffffffffffffff16906020019092919080359060200190929190505050610922565b604051808215151515815260200191505060405180910390f35b3480156101d357600080fd5b506101dc610a4f565b6040518082815260200191505060405180910390f35b3480156101fe57600080fd5b5061025d600480360381019080803573ffffffffffffffffffffffffffffffffffffffff169060200190929190803573ffffffffffffffffffffffffffffffffffffffff16906020019092919080359060200190929190505050610a59565b604051808215151515815260200191505060405180910390f35b34801561028357600080fd5b506102b8600480360381019080803573ffffffffffffffffffffffffffffffffffffffff169060200190929190505050610e14565b6040518082815260200191505060405180910390f35b3480156102da57600080fd5b506102e3610e2c565b6040518082815260200191505060405180910390f35b610317600480360381019080803590602001909291905050506106ec565b604051808215151515815260200191505060405180910390f35b34801561033d57600080fd5b5061037c600480360381019080803573ffffffffffffffffffffffffffffffffffffffff16906020019092919080359060200190929190505050610e32565b604051808215151515815260200191505060405180910390f35b3480156103a257600080fd5b506103ab611069565b6040518082815260200191505060405180910390f35b3480156103cd57600080fd5b506103ec6004803603810190808035906020019092919050505061106f565b6040518082815260200191505060405180910390f35b34801561040e57600080fd5b5061042d600480360381019080803590602001909291905050506110ba565b604051808215151515815260200191505060405180910390f35b34801561045357600080fd5b50610488600480360381019080803573ffffffffffffffffffffffffffffffffffffffff16906020019092919050505061127a565b6040518082815260200191505060405180910390f35b3480156104aa57600080fd5b506104b36112c2565b6040518082815260200191505060405180910390f35b3480156104d557600080fd5b50610514600480360381019080803573ffffffffffffffffffffffffffffffffffffffff169060200190929190803590602001909291905050506112c8565b604051808215151515815260200191505060405180910390f35b34801561053a57600080fd5b50610579600480360381019080803573ffffffffffffffffffffffffffffffffffffffff169060200190929190803590602001909291905050506114ff565b604051808215151515815260200191505060405180910390f35b34801561059f57600080fd5b506105be6004803603810190808035906020019092919050505061171f565b6040518082815260200191505060405180910390f35b3480156105e057600080fd5b506105e9611767565b604051808260ff1660ff16815260200191505060405180910390f35b34801561061157600080fd5b50610666600480360381019080803573ffffffffffffffffffffffffffffffffffffffff169060200190929190803573ffffffffffffffffffffffffffffffffffffffff16906020019092919050505061177a565b6040518082815260200191505060405180910390f35b34801561068857600080fd5b506106a7600480360381019080803590602001909291905050506106bd565b6040518082815260200191505060405180910390f35b6000806006546106e060075460026004548701028115156106da57fe5b0461106f565b02905080915050919050565b6000806000806106fb856108eb565b925082341015151561070c57600080fd5b61071f833461180190919063ffffffff16565b9150610734823461180190919063ffffffff16565b905060008211156107d7573373ffffffffffffffffffffffffffffffffffffffff166108fc839081150290604051600060405180830381858888f19350505050158015610785573d6000803e3d6000fd5b503373ffffffffffffffffffffffffffffffffffffffff1660007fddf252ad1be2c89b69c2b068fc378daa952ba7f163c4a11628f55a4df523b3ef846040518082815260200191505060405180910390a35b6107ec8560055461182290919063ffffffff16565b600581905550610843856000803373ffffffffffffffffffffffffffffffffffffffff1673ffffffffffffffffffffffffffffffffffffffff1681526020019081526020016000205461182290919063ffffffff16565b6000803373ffffffffffffffffffffffffffffffffffffffff1673ffffffffffffffffffffffffffffffffffffffff1681526020019081526020016000208190555061089a8160045461182290919063ffffffff16565b6004819055507fe7360c0fa1984a85874443100f5b25dd4f84192659660eb199f6c96e11defbcb8582604051808381526020018281526020019250505060405180910390a160019350505050919050565b600080600060055484019150600454600654600654600202028384600754020281151561091457fe5b040390508092505050919050565b60008073ffffffffffffffffffffffffffffffffffffffff168373ffffffffffffffffffffffffffffffffffffffff161415151561095f57600080fd5b81600160003373ffffffffffffffffffffffffffffffffffffffff1673ffffffffffffffffffffffffffffffffffffffff16815260200190815260200160002060008573ffffffffffffffffffffffffffffffffffffffff1673ffffffffffffffffffffffffffffffffffffffff168152602001908152602001600020819055508273ffffffffffffffffffffffffffffffffffffffff163373ffffffffffffffffffffffffffffffffffffffff167f8c5be1e5ebec7d5bd14f71427d1e84f3dd0314c0f7b2291e5b200ac8c7c3b925846040518082815260200191505060405180910390a36001905092915050565b6000600254905090565b60008060008573ffffffffffffffffffffffffffffffffffffffff1673ffffffffffffffffffffffffffffffffffffffff168152602001908152602001600020548211151515610aa857600080fd5b600160008573ffffffffffffffffffffffffffffffffffffffff1673ffffffffffffffffffffffffffffffffffffffff16815260200190815260200160002060003373ffffffffffffffffffffffffffffffffffffffff1673ffffffffffffffffffffffffffffffffffffffff168152602001908152602001600020548211151515610b3357600080fd5b600073ffffffffffffffffffffffffffffffffffffffff168373ffffffffffffffffffffffffffffffffffffffff1614151515610b6f57600080fd5b610bc0826000808773ffffffffffffffffffffffffffffffffffffffff1673ffffffffffffffffffffffffffffffffffffffff1681526020019081526020016000205461180190919063ffffffff16565b6000808673ffffffffffffffffffffffffffffffffffffffff1673ffffffffffffffffffffffffffffffffffffffff16815260200190815260200160002081905550610c53826000808673ffffffffffffffffffffffffffffffffffffffff1673ffffffffffffffffffffffffffffffffffffffff1681526020019081526020016000205461182290919063ffffffff16565b6000808573ffffffffffffffffffffffffffffffffffffffff1673ffffffffffffffffffffffffffffffffffffffff16815260200190815260200160002081905550610d2482600160008773ffffffffffffffffffffffffffffffffffffffff1673ffffffffffffffffffffffffffffffffffffffff16815260200190815260200160002060003373ffffffffffffffffffffffffffffffffffffffff1673ffffffffffffffffffffffffffffffffffffffff1681526020019081526020016000205461180190919063ffffffff16565b600160008673ffffffffffffffffffffffffffffffffffffffff1673ffffffffffffffffffffffffffffffffffffffff16815260200190815260200160002060003373ffffffffffffffffffffffffffffffffffffffff1673ffffffffffffffffffffffffffffffffffffffff168152602001908152602001600020819055508273ffffffffffffffffffffffffffffffffffffffff168473ffffffffffffffffffffffffffffffffffffffff167fddf252ad1be2c89b69c2b068fc378daa952ba7f163c4a11628f55a4df523b3ef846040518082815260200191505060405180910390a3600190509392505050565b60006020528060005260406000206000915090505481565b60055481565b60008073ffffffffffffffffffffffffffffffffffffffff168373ffffffffffffffffffffffffffffffffffffffff1614151515610e6f57600080fd5b610efe82600160003373ffffffffffffffffffffffffffffffffffffffff1673ffffffffffffffffffffffffffffffffffffffff16815260200190815260200160002060008673ffffffffffffffffffffffffffffffffffffffff1673ffffffffffffffffffffffffffffffffffffffff1681526020019081526020016000205461182290919063ffffffff16565b600160003373ffffffffffffffffffffffffffffffffffffffff1673ffffffffffffffffffffffffffffffffffffffff16815260200190815260200160002060008573ffffffffffffffffffffffffffffffffffffffff1673ffffffffffffffffffffffffffffffffffffffff168152602001908152602001600020819055508273ffffffffffffffffffffffffffffffffffffffff163373ffffffffffffffffffffffffffffffffffffffff167f8c5be1e5ebec7d5bd14f71427d1e84f3dd0314c0f7b2291e5b200ac8c7c3b925600160003373ffffffffffffffffffffffffffffffffffffffff1673ffffffffffffffffffffffffffffffffffffffff16815260200190815260200160002060008773ffffffffffffffffffffffffffffffffffffffff1673ffffffffffffffffffffffffffffffffffffffff168152602001908152602001600020546040518082815260200191505060405180910390a36001905092915050565b60075481565b60008060026001840181151561108157fe5b0490508291505b818110156110b45780915060028182858115156110a157fe5b04018115156110ac57fe5b049050611088565b50919050565b60008060008311801561110b5750826000803373ffffffffffffffffffffffffffffffffffffffff1673ffffffffffffffffffffffffffffffffffffffff1681526020019081526020016000205410155b151561111657600080fd5b61111f8361171f565b90503373ffffffffffffffffffffffffffffffffffffffff166108fc829081150290604051600060405180830381858888f19350505050158015611167573d6000803e3d6000fd5b5061117d8160045461180190919063ffffffff16565b6004819055506111d4836000803373ffffffffffffffffffffffffffffffffffffffff1673ffffffffffffffffffffffffffffffffffffffff1681526020019081526020016000205461180190919063ffffffff16565b6000803373ffffffffffffffffffffffffffffffffffffffff1673ffffffffffffffffffffffffffffffffffffffff1681526020019081526020016000208190555061122b8360055461180190919063ffffffff16565b6005819055507f210405eb88ac7589aa9de0a6e36b9c9d3cd6e4061b74363d250a77afe3c6efb78382604051808381526020018281526020019250505060405180910390a16001915050919050565b60008060008373ffffffffffffffffffffffffffffffffffffffff1673ffffffffffffffffffffffffffffffffffffffff168152602001908152602001600020549050919050565b60045481565b60008073ffffffffffffffffffffffffffffffffffffffff168373ffffffffffffffffffffffffffffffffffffffff161415151561130557600080fd5b61139482600160003373ffffffffffffffffffffffffffffffffffffffff1673ffffffffffffffffffffffffffffffffffffffff16815260200190815260200160002060008673ffffffffffffffffffffffffffffffffffffffff1673ffffffffffffffffffffffffffffffffffffffff1681526020019081526020016000205461180190919063ffffffff16565b600160003373ffffffffffffffffffffffffffffffffffffffff1673ffffffffffffffffffffffffffffffffffffffff16815260200190815260200160002060008573ffffffffffffffffffffffffffffffffffffffff1673ffffffffffffffffffffffffffffffffffffffff168152602001908152602001600020819055508273ffffffffffffffffffffffffffffffffffffffff163373ffffffffffffffffffffffffffffffffffffffff167f8c5be1e5ebec7d5bd14f71427d1e84f3dd0314c0f7b2291e5b200ac8c7c3b925600160003373ffffffffffffffffffffffffffffffffffffffff1673ffffffffffffffffffffffffffffffffffffffff16815260200190815260200160002060008773ffffffffffffffffffffffffffffffffffffffff1673ffffffffffffffffffffffffffffffffffffffff168152602001908152602001600020546040518082815260200191505060405180910390a36001905092915050565b60008060003373ffffffffffffffffffffffffffffffffffffffff1673ffffffffffffffffffffffffffffffffffffffff16815260200190815260200160002054821115151561154e57600080fd5b600073ffffffffffffffffffffffffffffffffffffffff168373ffffffffffffffffffffffffffffffffffffffff161415151561158a57600080fd5b6115db826000803373ffffffffffffffffffffffffffffffffffffffff1673ffffffffffffffffffffffffffffffffffffffff1681526020019081526020016000205461180190919063ffffffff16565b6000803373ffffffffffffffffffffffffffffffffffffffff1673ffffffffffffffffffffffffffffffffffffffff1681526020019081526020016000208190555061166e826000808673ffffffffffffffffffffffffffffffffffffffff1673ffffffffffffffffffffffffffffffffffffffff1681526020019081526020016000205461182290919063ffffffff16565b6000808573ffffffffffffffffffffffffffffffffffffffff1673ffffffffffffffffffffffffffffffffffffffff168152602001908152602001600020819055508273ffffffffffffffffffffffffffffffffffffffff163373ffffffffffffffffffffffffffffffffffffffff167fddf252ad1be2c89b69c2b068fc378daa952ba7f163c4a11628f55a4df523b3ef846040518082815260200191505060405180910390a36001905092915050565b6000806000836005541015151561173557600080fd5b83600554039150600654600654600202028283600754020281151561175657fe5b046004540390508092505050919050565b600360009054906101000a900460ff1681565b6000600160008473ffffffffffffffffffffffffffffffffffffffff1673ffffffffffffffffffffffffffffffffffffffff16815260200190815260200160002060008373ffffffffffffffffffffffffffffffffffffffff1673ffffffffffffffffffffffffffffffffffffffff16815260200190815260200160002054905092915050565b60008083831115151561181357600080fd5b82840390508091505092915050565b600080828401905083811015151561183957600080fd5b80915050929150505600a165627a7a72305820b0e2f8e12689d442140d34c17d98812896e9832f3b2667eee86ae7d2d73f89190029",
  "source": "pragma solidity ^0.4.24;\n\nimport \"./erc20.sol\";\n\ncontract TokenLin is ERC20 {\n  event LogMint(uint256 amountMinted, uint256 totalCost);\n  event LogWithdraw(uint256 amountWithdrawn, uint256 reward);\n  event LogBondingCurve(string logString, uint256 value);\n\n  // must be divisible by 2 & at least 14 to accurately calculate cost\n  uint8 public bondingCurveDecimals;\n  uint256 public poolBalance = 0;\n  uint256 public totalSupply_;\n\n  // shorthand for decimal\n  // dec = (10 ** uint256(bondingCurveDecimals));\n  uint256 dec;\n\n  // multiple is the cost of 1 * multiple tokens\n  // multiple will effect accuracy\n  // it should be around 10 ** 8 - 10 ** 12 to limit rounding errors\n  uint256 public multiple;\n\n\n // to compute poolBalance for any given price use integral y = m * 1/2 * x ^ 2\n  /**\n   * Get price for purchacing tokenAmount of tokens\n   * @param tokenAmount token amount param\n   * @return {uint} finalPrice\n   */\n  function getBuyPrice(uint256 tokenAmount) public view returns(uint) {\n    uint256 totalTokens = tokenAmount + totalSupply_;\n\n    // With: x = totalTokens / dec\n    uint256 finalPrice = multiple * totalTokens * totalTokens / ( 2 * dec * dec ) - poolBalance;\n\n    return finalPrice;\n  }\n\n\n  /**\n   * Get sell price for tokenAmount\n   * @param tokenAmount token amount param\n   * @return {uint} finalPrice\n   */\n  function getSellReward(uint256 tokenAmount) public view returns(uint) {\n    require(totalSupply_ >= tokenAmount);\n\n    uint256 newTotalTokens = totalSupply_ - tokenAmount;\n    uint256 finalPrice = poolBalance - multiple * newTotalTokens * newTotalTokens / (2 * dec * dec);\n\n    return finalPrice;\n  }\n\n  /**\n   * @dev default function\n   * this is a disrete approximation and shouldn't be used in practice\n   * gas price for this one is 128686\n   */\n  function() public payable {\n    uint256 amount = estimateTokenAmountForPrice(msg.value);\n    buyTokens(amount);\n  }\n\n  /**\n   * @dev Buy tokens\n   * gas cost ~ $1.5\n   * @param tokensToMint tokens we want to buy\n   * @return {bool}\n   */\n  function buyTokens(uint256 tokensToMint) public payable returns(bool) {\n    uint256 priceForAmount = getBuyPrice(tokensToMint);\n    require(msg.value >= priceForAmount);\n\n    uint256 remainingFunds = msg.value.sub(priceForAmount);\n    uint256 usedWei = msg.value.sub(remainingFunds);\n\n    // Send back unspent funds\n    if (remainingFunds > 0) {\n      msg.sender.transfer(remainingFunds);\n      Transfer(0x0, msg.sender, remainingFunds);\n    }\n\n    totalSupply_ = totalSupply_.add(tokensToMint);\n    balances[msg.sender] = balances[msg.sender].add(tokensToMint);\n    poolBalance = poolBalance.add(usedWei);\n\n    LogMint(tokensToMint, usedWei);\n    return true;\n  }\n\n  /**\n   * @dev sell tokesn\n   * @param _amountToWithdraw amount of tokens to withdraw\n   * @return {bool}\n   */\n  function sellTokens(uint256 _amountToWithdraw) public returns(bool) {\n    require(_amountToWithdraw > 0 && balances[msg.sender] >= _amountToWithdraw);\n\n    uint256 reward = getSellReward(_amountToWithdraw);\n    msg.sender.transfer(reward);\n\n    poolBalance = poolBalance.sub(reward);\n    balances[msg.sender] = balances[msg.sender].sub(_amountToWithdraw);\n    totalSupply_ = totalSupply_.sub(_amountToWithdraw);\n    LogWithdraw(_amountToWithdraw, reward);\n\n    return true;\n  }\n\n  /**\n   * @dev calculetes amount of tokens to mint for give Eth amount\n   * based on the area under the curve based on amount\n   * area = m * 1/2 * x ^ 2 <- total price of all tokens\n   * we can dervive\n   * poolBalance + msg.value = m * 1/2 * (totalSupply_ + newTokens) ^ 2\n   * first we figure out how many tokens to mint\n   * 2 * (poolBalance + msg.value)^1/2 = m * (totalSupply_ + newTokens)\n   * @param price - this is the amount user is willing to pay for new tokens\n   * @return tokenAmount\n   */\n  function estimateTokenAmountForPrice(uint256 price) public view returns(uint256 tokenAmount) {\n    uint256 newTotal = sqrt((price + poolBalance) * 2 / multiple) * dec;\n    return newTotal;\n  }\n\n  function sqrt(uint256 x) public pure returns (uint256 y) {\n    uint256 z = (x + 1) / 2;\n    y = x;\n    while (z < y) {\n      y = z;\n      z = (x / z + z) / 2;\n    }\n  }\n}\n",
  "sourcePath": "/home/mo/dev/ethberlin/smartcontracts/contracts/base/TokenLin.sol",
  "compiler": {
    "name": "solc",
    "version": "0.4.24+commit.e67f0147.Emscripten.clang"
  },
  "schemaVersion": "2.0.0",
  "updatedAt": "2018-09-08T15:44:22.138Z"
}